:100000000C94BB030C94E3030C94E3030C94E30300
:100010000C94E3030C94E3030C94E3030C94E303C8
:100020000C94E3030C94E3030C9466070C94D80738
:100030000C94E3030C94E3030C94E3030C94E303A8
:100040000C94E3030C94E3030C94E3030C94E30398
:100050000C94E3030C94E3030C94E3030C94A70BBC
:100060000C94E3030C94E3030C94E3030C94E30378
:100070000C94E3030C94E3030C94E3030C94E30368
:100080000C94E3030C94E3030C94E3030C94E30358
:100090000C94E3030C94E3030C94E3030C94E30348
:1000A0000C94E3030C94E3030C94E303F0F89C8EAC
:1000B0008783878E9CF8F00000FEFF030303030391
:1000C000070EFCF80000FEFF0303030303070EFC0A
:1000D000F80000FFFF00000000000000FFFF00002C
:1000E000FEFF8383838383C7EE7C380000F8FC0E19
:1000F00007030303070EFCF800003F7FE0C0808089
:10010000C0E07F3FFFFF01010101010101FFFF008E
:1001100000FFFF0C0C0C0C1C3E77E3C100007FFFBE
:10012000C0C0C0C0C0E0703F1F00001F3F70E0C0F3
:10013000C0C0E0703F1F00007FFFC1C1C1C1C1E36B
:10014000773E1C00001F3F70E0C0C0C0E0703F1F42
:10015000000000000001FFFF01000000D5F08D1439
:10016000A1C881CFD9F1AF20000000000054FEFFEC
:10017000FFFFFFFE540000000000000000153F3F9D
:10018000FFFF3F3F1500000000FF000000000000DF
:100190000000000000000000FFFF00000000000061
:1001A0000000000000000000FF000000609CFEFC5A
:1001B000FEFEFCFE9C600000000000001867FFF8D7
:1001C000F0F0F8FF671800000000C8F4FCF8E0E069
:1001D000E0E0F0F850000000000001070F2F3F0F93
:1001E0000F0703010000000000526F6164204368A4
:1001F00069636B656E00080B0002020201000904CE
:100200000000010202000005240010010524010184
:1002100001042402060524060001070581031000DD
:100220004009040100020A00000007050202400024
:1002300000070583024000000403090412010002C4
:10024000EF020140412336800001010203014172A7
:100250006475696E6F204C4C430041726475696E21
:100260006F204C656F6E6172646F000102040810AC
:1002700020408000000000003E5B4F5B3E3E6B4F25
:100280006B3E1C3E7C3E1C183C7E3C181C577D5728
:100290001C1C5E7F5E1C00183C1800FFE7C3E7FFD4
:1002A0000018241800FFE7DBE7FF30483A060E2667
:1002B00029792926407F050507407F05253F5A3CBF
:1002C000E73C5A7F3E1C1C08081C1C3E7F14227F02
:1002D00022145F5F005F5F06097F017F00668995DA
:1002E0006A606060606094A2FFA29408047E0408C3
:1002F00010207E201008082A1C08081C2A08081E46
:10030000101010100C1E0C1E0C30383E3830060E2B
:100310003E0E06000000000000005F000000070025
:100320000700147F147F14242A7F2A1223130864E1
:100330006236495620500008070300001C22410085
:100340000041221C002A1C7F1C2A08083E080800C5
:100350008070300008080808080000606000201065
:100360000804023E5149453E00427F40007249491F
:1003700049462141494D331814127F102745454500
:10038000393C4A4949314121110907364949493621
:10039000464949291E0000140000004034000000B6
:1003A00008142241141414141400412214080201E8
:1003B0005909063E415D594E7C1211127C7F494914
:1003C00049363E414141227F4141413E7F494949B1
:1003D000417F090909013E414151737F0808087FA7
:1003E00000417F41002040413F017F081422417FAE
:1003F000404040407F021C027F7F0408107F3E4146
:1004000041413E7F090909063E4151215E7F09199C
:100410002946264949493203017F01033F404040B4
:100420003F1F2040201F3F4038403F6314081463A3
:1004300003047804036159494D43007F414141025F
:1004400004081020004141417F04020102044040A1
:10045000404040000307080020545478407F28445F
:1004600044383844444428384444287F3854545449
:100470001800087E090218A4A49C787F0804047858
:1004800000447D40002040403D007F102844000093
:10049000417F40007C047804787C08040478384468
:1004A000444438FC1824241818242418FC7C08041C
:1004B0000408485454542404043F44243C4040203D
:1004C0007C1C2040201C3C4030403C4428102844E8
:1004D0004C9090907C4464544C4400083641000099
:1004E00000770000004136080002010204023C26A9
:1004F00023263C1EA1A161123A4040207A38545470
:1005000055592155557941215454784121555478F4
:100510004020545579400C1E527212395555555988
:10052000395454545939555454580000457C4100AD
:1005300002457D420001457C40F0292429F0F02845
:100540002528F07C545545002054547C547C0A09DD
:100550007F4932494949323248484832324A48484C
:10056000303A4141217A3A42402078009DA0A07D56
:1005700039444444393D4040403D3C24FF24244814
:100580007E4943662B2FFC2F2BFF0929F620C088BC
:100590007E090320545479410000447D413048488D
:1005A0004A32384040227A007A0A0A727D0D1931A7
:1005B0007D2629292F28262929292630484D402003
:1005C000380808080808080808382F10C8ACBA2FDF
:1005D000102834FA00007B000008142A1422221488
:1005E0002A14089500220095AA005500AAAA55AA27
:1005F00055AA000000FF00101010FF00141414FF93
:10060000001010FF00FF1010F010F0141414FC0084
:100610001414F700FF0000FF00FF1414F404FC148E
:100620001417101F10101F101F1414141F00101087
:1006300010F0000000001F101010101F10101010FC
:10064000F010000000FF101010101010101010FF1C
:1006500010000000FF140000FF00FF00001F101733
:100660000000FC04F414141710171414F404F4001C
:1006700000FF00F714141414141414F700F71414E2
:1006800014171410101F101F141414F4141010F069
:1006900010F000001F101F0000001F14000000FCDD
:1006A000140000F010F01010FF10FF141414FF14C9
:1006B0001010101F00000000F010FFFFFFFFFFF000
:1006C000F0F0F0F0FFFFFF0000000000FFFF0F0F51
:1006D0000F0F0F38444438447C2A2A3E147E02020D
:1006E0000606027E027E0263554941633844443C5B
:1006F00004407E201E2006027E020299A5E7A599ED
:100700001C2A492A1C4C7201724C304A4D4D303023
:1007100048784830BC625A463D3E494949007E010E
:1007200001017E2A2A2A2A2A44445F444440514A2D
:10073000444040444A51400000FF0103E080FF0074
:100740000008086B6B083612362436060F090F06B0
:10075000000018180000001010003040FF010100D8
:100760001F01011E00191D1712003C3C3C3C0000FB
:10077000000000008B1011241FBECFEFDAE0DEBFB7
:10078000CDBF11E0A0E0B1E0E4EAF4E202C00590E0
:100790000D92A23AB107D9F726E0A2EAB1E001C072
:1007A0001D92A835B207E1F713E0CBEBD3E004C00C
:1007B0002197FE010E944512CA3BD107C9F70E944A
:1007C000030C0C9450120C940000FC018091B101B8
:1007D000811103C08FEF9FEF08959FB7F89482E0D7
:1007E0008093E9002091F20030E01216130614F411
:1007F00021E030E02115310559F0289884E68093F6
:10080000B0018091F10080838091F200882319F07B
:100810009FBFC90108958BE68093E800F9CF2FB7F9
:10082000F89483E08093E9009091E800892F80722A
:1008300095FF04C09091F20080E4891B2FBF0895BA
:10084000CF93DF931F92CDB7DEB76983DC01ED91C3
:10085000FC910280F381E02D41E050E0BE016F5F2A
:100860007F4F09950F90DF91CF91089583E080939A
:10087000E9008091F200882319F08AE38093E80070
:1008800008950E940F0490E00895CF93DF931F9284
:10089000CDB7DEB7FC018485958597FD05C02FEFA8
:1008A0003FEF358724870BC0CE0101960E94E503F8
:1008B000019719F4898190E002C08FEF9FEF0F90AC
:1008C000DF91CF9108950F931F93CF93DF931F92E2
:1008D000CDB7DEB78C01FC018485958597FF0EC0EE
:1008E000CE0101960E94E503019719F4298130E0B9
:1008F00002C02FEF3FEFF80135872487F801848588
:1009000095850F90DF91CF911F910F910895FC0174
:100910008485958597FD0BC09FB7F89482E08093FE
:10092000E9008091F2009FBF90E0019608959FB783
:10093000F89482E08093E9008091F2009FBF90E0FC
:1009400008958F929F92AF92BF92CF92DF92EF92D3
:10095000FF920F931F93CF93DF935C016B017A019A
:1009600080910A01882309F45BC08091B10188233A
:1009700009F456C08091AF0180FF05C08091E0006E
:1009800082608093E000E70110E00AEF83E0882EA8
:100990009AE3992E2097D9F10E940F0481110AC081
:1009A000015009F43DC061E070E080E090E00E94F9
:1009B0006D0BF0CF282F30E0C217D3070CF48C2F2B
:1009C0004FB7F8948092E9009091E80095FF1DC020
:1009D000282F30E0C21BD30BF601982F915020F046
:1009E00081918093F100FACFC20ED31E112319F02A
:1009F0009092E80009C08091E80085FD06C09092C1
:100A0000E80011E0209709F010E04FBFC3CF1111AB
:100A1000C3CF5D9884E68093AE011E141F0444F09A
:100A200081E090E0F5019383828380E090E001C053
:100A3000C701DF91CF911F910F91FF90EF90DF9051
:100A4000CF90BF90AF909F908F9008952F923F923C
:100A50004F925F926F927F928F929F92AF92BF92CE
:100A6000CF92DF92EF92FF920F931F93CF93DF937A
:100A700000D000D000D0CDB7DEB75A01822E912C25
:100A80009C01280D391D37FDAFC0803891050CF051
:100A9000ABC09B01205F3F4F2035310508F0A4C05B
:100AA000AB0177FF04C044275527461B570B4770FF
:100AB00055279B0177FF02C0295F3F4FE3E0359543
:100AC0002795EA95E1F777FF08C02150310968E0E2
:100AD00070E0DB01A41BB50BAD0139017694762CD7
:100AE000662477946794680E791EE12CF12C00E05F
:100AF00010E02301B0E84B0E511C68E070E0DB0110
:100B0000A41BB50BBA83A9832F3FBFEF3B077CF42F
:100B10002F5F3F4F00581F4FE80CF91C0115E1E013
:100B20001E0709F461C02830310571F75DC0B201BC
:100B3000600F711FDB01AE54BE4FBC83AB83D80185
:100B4000A60DB71DAE54BE4F6C0160E070E0681595
:100B50007905F4F6E0E8CE16D104D1F2D7FC34C022
:100B60002F3FFFEF3F0709F43BC0FB01EE0DFF1DD8
:100B7000EA0DFB1DE491042E01C0EE0F0A94EAF782
:100B80003C90E329EC9341155105F1F027303105F4
:100B9000D9F0FB01EE0DFF1DEA0DFB1DE4912E2E99
:100BA000312CF101098002C0F595E7950A94E2F72E
:100BB000FE83ED83EB81FC813080ED81FE81E329B2
:100BC0001F01EB81FC8120826F5F7F4FEB81FC81F5
:100BD0003196FC83EB83FFEFCF1ADF0A1196B7CF74
:100BE00041155105B1F6F0CF26960FB6F894DEBF49
:100BF0000FBECDBFDF91CF911F910F91FF90EF906E
:100C0000DF90CF90BF90AF909F908F907F906F902C
:100C10005F904F903F902F900895E2EBF1E0A0E0BD
:100C2000B8E000800EBC8111012C1197A0FDFDCF12
:100C30000192B9F70DB408952091BC05282329F439
:100C40009091BB05982381E009F480E0089580E04D
:100C5000E2EBF1E081118FEF002481938193819386
:100C600081930394D1F7E2EBF5E0128A118A108A9E
:100C7000178608958F929F92AF92BF920F931F9302
:100C8000CF93DF93CDB7DEB7A1970FB6F894DEBF51
:100C90000FBECDBF19A2423008F44AE08E010F5DAD
:100CA0001F4F842E912CA12CB12CA50194010E94E0
:100CB0001412E62FB901CA0101501109EA3014F4E7
:100CC000E05D01C0E95CD801EC93232B242B252B9C
:100CD00061F70115110571F0F80101900020E9F7A5
:100CE0003197AF01401B510BB80182EB95E00E9498
:100CF000080A02C080E090E0A1960FB6F894DEBF2B
:100D00000FBECDBFDF91CF911F910F91BF90AF90DC
:100D10009F908F9008950F931F93CF93DF938091AF
:100D200064008E7F8093640080917A008064809359
:100D30007A0080917A0086FDFCCFC0917800D09136
:100D400079000E94480B8E0120E030E098011127C5
:100D50000027600F711F821F931F611571058105A8
:100D6000910511F00E94C31180916400816080930D
:100D70006400DF91CF911F910F9108958091F50547
:100D800081110DC082E08093F10584E08093F2052B
:100D90001092F4051092F30581E08093F50581EF40
:100DA00095E00895409151065091520620914F06CA
:100DB0003091500642175307B4F49091E8009570B3
:100DC000E1F39091E80092FD19C08093F1008091C9
:100DD00051069091520601968F739927892B19F429
:100DE0008EEF8093E8008091510690915206019613
:100DF000909352068093510681E0089580E0089513
:100E0000DF92EF92FF920F931F93CF93DF93D82E31
:100E10008A017B01E40EF51EEB01CE15DF0571F0B2
:100E2000D7FE03C0FE01849101C088810E94D206D2
:100E300021968111F2CF8FEF9FEF01C0C801DF91A2
:100E4000CF911F910F91FF90EF90DF900895615027
:100E500030F02091F100FC0120830196F8CF289812
:100E600084E68093B00108950F931F93CF93DF938F
:100E70001F92CDB7DEB782E0898342E450E066EF8F
:100E800071E080E80E9400070E94BE06DC01129615
:100E90000D911C9113970115110569F0D801ED9181
:100EA000FC910280F381E02DBE016F5F7F4FC8018E
:100EB000099597FF07C089810F90DF91CF911F910E
:100EC0000F910895F80100851185E5CF1F920F92CB
:100ED0000FB60F9211248F939F938091E100909110
:100EE000E100937F9093E10083FF0FC01092E9002F
:100EF00091E09093EB001092EC0092E39093ED0060
:100F00001092B10198E09093F00082FF20C093E02E
:100F10009093E9009091F200992319F09AE390934D
:100F2000E8009091AE01992339F09091AE01915073
:100F30009093AE01992389F19091B001992339F0F2
:100F40009091B00191509093B001992341F184FFA9
:100F500010C08091E2008E7E81608093E2008091DB
:100F6000E1008F7E8093E1008091AF018E7E8061F1
:100F700011C080FF16C08091E2008E7E8061809358
:100F8000E2008091E1008E7E8093E1008091AF01CC
:100F90008E7E81608093AF0104C05D9ACDCF289A88
:100FA000D6CF9F918F910F900FBE0F901F901895E5
:100FB0001F920F920FB60F921124CF92DF92EF92F1
:100FC000FF920F931F932F933F934F935F936F93D2
:100FD0007F938F939F93AF93BF93EF93FF93CF93A1
:100FE000DF93CDB7DEB76C97DEBFCDBF1092E900BF
:100FF0008091E80083FFEDC168E0CE0145960E9434
:10100000270782EF8093E8008D8987FF05C09091C4
:10101000E80090FFFCCF03C09EEF9093E800982F6C
:10102000907609F0C6C09E892F89188D91110CC049
:10103000803829F480914E068093F10002C010920E
:10104000F1001092F10048C1422F50E0512B913035
:1010500051F4811141C14130510509F03DC18091E8
:101060004E068D7F0BC0933061F4811135C1413044
:10107000510509F031C180914E06826080934E0681
:101080002BC1953041F48091E80080FFFCCF2068AF
:101090002093E30021C1963009F05FC0EB8CFC8CFB
:1010A0001092E9001092520610925106123091F5FA
:1010B0001092500610924F060E94340799E0BE012C
:1010C0006F5F7F4FDB01E92F1D92EA95E9F7998366
:1010D0001A8391E09E8390EA98879AEF99872091EE
:1010E000510630915206275F3F4F3C832B838D83FF
:1010F0001092E9001092520610925106F09250069A
:10110000E0924F0649E050E080E00E9400070E9414
:101110003407E2C0F0925006E0924F060E94BE06ED
:10112000DC011296ED90FC901397E114F10409F4A0
:10113000C0C0D701ED91FC910480F581E02DBE0186
:101140006B5E7F4FC7010995009719F00CF0C4C082
:10115000C7C0F701E084F184E8CF973009F4C0C03C
:10116000983021F481E08093F100B6C0993009F005
:10117000B3C0837009F0B4C0EAE7F1E081E021E098
:1011800036E39081992361F08093E9002093EB008E
:1011900091919093EC003093ED008F5F873089F749
:1011A0008EE78093EA001092EA008F898093B10164
:1011B00093C08B8D9C8D1092E90010925206109274
:1011C00051069093500680934F06898D811156C029
:1011D0008E899D89913A59F4813209F081C047E0A6
:1011E00050E063E071E080E00E94000775C091323A
:1011F00009F076C0833289F4888D90E0982F882793
:101200002F89822BA0E0B0E080930B0190930C011A
:10121000A0930D01B0930E015FC0803269F48091FC
:10122000E80082FFFCCF67E083E091E00E9427079F
:101230008BEF8093E80006C0823209F04DC08F89A1
:1012400080930A0180914D06882319F0EEEFFAE0B1
:1012500002C0E0E0F8E08091030190910401A091C8
:101260000501B0910601803B9440A105B10509F04C
:101270007BC080910A0180FF93C076C00E94BE06A9
:10128000DC0112960D911C9113970115110541F186
:10129000D801ED91FC910190F081E02DBE016B5ED3
:1012A0007F4FC8010995811117C0F801008511858C
:1012B000ECCF113009F44EC0133091F48F8988239C
:1012C00009F445C0823081F440E860E18AE592E0AB
:1012D0000E94F210882321F08EEF8093E80079C0FD
:1012E00081E28093EB0075C0813029F440E86BE027
:1012F0008EE492E0EDCF833099F70E94BE06DC01C8
:101300001296ED90FC9013978E010F5F1F4F6801AE
:10131000E114F10479F0D701ED91FC910680F78199
:10132000E02DB801C7010995080F111DF701E084F0
:10133000F184EECFD8011C92F60101900020E9F76C
:101340003197BF016C197D0940E0C601C1CF68E348
:1013500072E002C06CE372E06115710509F2FB01F5
:10136000449150E080E840CF0FB6F894A895809162
:101370006000886180936000109260000FBEA895A5
:10138000EE3F2AE0F20739F08091FE0A9091FF0AC1
:1013900091838083A1CF1092FF0A1092FE0A9CCF06
:1013A000EE3F8AE0F80731F0808191819093FF0A47
:1013B0008093FE0A87E797E7918380839BE088E12B
:1013C0000FB6F894A895809360000FBE90936000CC
:1013D00083CF6C960FB6F894DEBF0FBECDBFDF9102
:1013E000CF91FF91EF91BF91AF919F918F917F919D
:1013F0006F915F914F913F912F911F910F91FF90AE
:10140000EF90DF90CF900F900FBE0F901F90189528
:10141000CF92DF92EF92FF920F931F93CF93DF93C0
:101420006C017A018B01C0E0D0E0CE15DF0589F0B8
:10143000D8016D918D01D601ED91FC910190F08163
:10144000E02DC6010995892B11F47E0102C0219679
:10145000ECCFC701DF91CF911F910F91FF90EF90DB
:10146000DF90CF9008952F923F924F925F926F92AC
:101470007F928F929F92AF92BF92CF92DF92EF9224
:10148000FF920F931F93CF93DF93CDB7DEB72797CC
:101490000FB6F894DEBF0FBECDBF9B838A836A3040
:1014A000A1F4DC0155962C91559751968D919C9104
:1014B0005297B8E02B9F800D911D1124EA81FB818A
:1014C000928B818B108A1786C1C06D3009F4BEC023
:1014D000AA81BB8155964C91559754966C90549720
:1014E0006E8253967C9053977F825196CD90DC907C
:1014F00052971F968D919C91509780389105C4F01A
:10150000AA81BB8155962C915597422F50E01F968A
:101510008D919C915097B6E02B9F800D911D1124C9
:10152000EA81FB81908B8787268921117AC08EC042
:10153000F0E4CF16D10424F79C0155E0459F200D1F
:10154000311D112412161306DCF6242E312C9601BF
:10155000A8E04A9F200D311D11241216130684F6AF
:10156000B5E06B9FB0011124FB01ED58FD4F2F0139
:1015700050E0F201B490553009F4B12C7601B8E096
:101580009B2EB0FC02C08E8001C08F8081100BC0EA
:101590006E807F80671007C0B6949A94E20CF31CAB
:1015A0009110EFCF33C09C012983622F681B641711
:1015B00098F7B701E62FEE19E41728F52038310522
:1015C000F8F460347105E0F48B01EBE6F2E0A0E1A1
:1015D0006A2E7980609ED001A0781124A70D077033
:1015E000E00FF11DA490BD83AC83AE54BE4F8820A4
:1015F00019F0EC91AE2A03C0A094EC91AE22AC920B
:101600006F5F7F4FD7CF2F5F3F4FCECF5F5F820D92
:10161000931D92012F5F3F4F2901563009F0A9CF4A
:101620006FCF6AEF64039001659F300D112420583D
:101630003F4F2817390754F48A819B81DC01ED91D3
:10164000FC910190F081E02D6AE0099581E090E045
:1016500027960FB6F894DEBF0FBECDBFDF91CF91B6
:101660001F910F91FF90EF90DF90CF90BF90AF90C0
:101670009F908F907F906F905F904F903F902F90B2
:1016800008950895089580E090E008950E944B1217
:101690003FB7F8948091540690915506A091560654
:1016A000B091570626B5A89B05C02F3F19F00196AB
:1016B000A11DB11D3FBFBA2FA92F982F8827820FD8
:1016C000911DA11DB11DBC01CD0142E0660F771F28
:1016D000881F991F4A95D1F708958F929F92AF92D4
:1016E000BF92CF92DF92EF92FF926B017C010E943A
:1016F000480B4B015C01C114D104E104F104F1F089
:101700000E94480BDC01CB0188199909AA09BB0981
:10171000883E9340A105B10570F321E0C21AD108BB
:10172000E108F10888EE880E83E0981EA11CB11C28
:10173000C114D104E104F10419F7DDCFFF90EF905B
:10174000DF90CF90BF90AF909F908F9008951F92A1
:101750000F920FB60F9211242F933F938F939F9365
:10176000AF93BF938091A2019091A301A091A40196
:10177000B091A5013091530623E0230F2D3720F4BB
:101780000196A11DB11D05C026E8230F0296A11DDB
:10179000B11D209353068093A2019093A301A093BF
:1017A000A401B093A5018091540690915506A09193
:1017B0005606B09157060196A11DB11D809354069F
:1017C00090935506A0935606B0935706BF91AF91DC
:1017D0009F918F913F912F910F900FBE0F901F906F
:1017E00018952D9A0895BC0180E090E00C946D0B43
:1017F0008FB18095807F669B88601C9B8460089574
:1018000080E00C940D06789484B5826084BD84B524
:10181000816084BD85B5826085BD85B5816085BDEB
:1018200080916E00816080936E00109281008091A3
:10183000810082608093810080918100816080932B
:101840008100809180008160809380008091910070
:1018500082608093910080919100816080939100DB
:10186000809190008160809390008091C10084609D
:101870008093C1008091C10082608093C1008091FB
:10188000C10081608093C1008091C300816080931A
:10189000C3008091C00082608093C0008091C2002C
:1018A00081608093C20080917A00846080937A0086
:1018B00080917A00826080937A0080917A008160C2
:1018C00080937A0080917A00806880937A001092E9
:1018D000B10110924E061092AF018091D700816045
:1018E0008093D70080EA8093D80089B5806189BD54
:1018F00089B5826089BD09B400FEFDCF61E070E06A
:1019000080E090E00E946D0B8091D8008F7C806118
:101910008093D8008091E000807F8093E0008091E8
:10192000E1008E7E8093E1008DE08093E200559A85
:10193000209AEEEFFFE7859194918B3F9C4D19F42F
:1019400081E080934D0681E28093BD058091BB05C7
:101950008093BC050E94F80B8093BB050E9427066C
:1019600081EC80937C0085B1806F85B984B1877EDE
:1019700084B984B1876E84B95E9A5F988AB1806DAC
:101980008AB9769A6E9881B3806F81BB899880B34B
:101990008D7080BB80E58CBD81E08DBD85E090E0E1
:1019A0000E94F30B5F9A85E090E00E94F30B5E9833
:1019B0005C98ECE5F1E08DE08E0F94919EBD000007
:1019C0000DB407FEFDCF31968E13F7CF5C9A81E8F8
:1019D000809364008091650081608093650086EB50
:1019E00095E00E94000C0E94F80B87FF24C05C98D1
:1019F00085EA8EBD00000DB407FEFDCF5C9A2E98DF
:101A00002F982D988091640080628093640081E01B
:101A100083BF889513BEFCCF2D980E94F80B847865
:101A2000843871F00E94F80B8471843131F188ECB4
:101A300090E00E94F30B0E94F80B82FDEDCF3AC0BC
:101A40000E94F10B88EC90E00E94F30B2F9882E04B
:101A500090E00E94CC118F3F29F06FEF82E090E080
:101A60000E94D41184EF91E00E94F30B2F9A0E9400
:101A7000F80B84788438D9F3D5CF0E94F10B88EC29
:101A800090E00E94F30B2E9882E090E00E94CC112F
:101A9000882329F060E082E090E00E94D41184EF76
:101AA00091E00E94F30B2E9A0E94F80B847184310E
:101AB000D9F3BDCF0E94F10B82E090E00E94CC11DF
:101AC000882331F03E9A3F9A81E08093A60104C0BA
:101AD0001092A6013E983F9881E090E00E94CC11C0
:101AE00081FF39C02E98C0EFDFEF0E94F80B86FF10
:101AF00004C02E9A2F9A2D9A2EC0C430D10511F40D
:101B00002E9A2F9881E00E940D0628E54CEA50E0BD
:101B1000BE0184E190E00E94260586EB95E00E94DC
:101B2000000C8FE090E00E94F30B2196C931D105A3
:101B3000E1F62F9A2D9880E991E00E94F30B0E9424
:101B4000F10BE091B605F091B7050190F081E02D21
:101B500086EB95E0099582E390E00E94F30B0E94EA
:101B6000F80B8111F8CF86EB95E00E94000C24E081
:101B7000422E512C612C712C32E0832E912CA12C01
:101B8000B12C0E9427068FB7F8944091A201509182
:101B9000A3016091A4017091A5018FBF8091BE0542
:101BA000342F381B832F9091BF05992329F0309350
:101BB000C0051092BF059EC29091BD05391748F42B
:101BC0008F5F891708F096C281E083BF889513BEA6
:101BD00091C2C1E0C093BF054093BE058091B90595
:101BE0009091BA0501969093BA058093B9058091BA
:101BF000AC019091AD018130910509F44AC0823069
:101C0000910509F449C2892B09F070C28091BB0586
:101C10008093BC050E94F80B8093BB050E942706A9
:101C20000E948B068DE190E09093C2058093C105E0
:101C30008EE190E09093C4058093C305C9EED1E096
:101C4000FE016491611117C086EB95E00E94000CC3
:101C500088E00E941C06882309F448C281E090E0D5
:101C60009093AD018093AC0182E190E09093AB0141
:101C70008093AA013BC2E091B205F091B3050190B7
:101C8000F081E02D82EB95E009952196892BC1F634
:101C9000DBCF0E9427068091BB058093BC050E9484
:101CA000F80B8093BB050E948B0660910101709137
:101CB000020120E149EC51E08091AA019091AB0131
:101CC0000E942605E091A9012AE0E29FF00111247B
:101CD000E753FA4F8481811103C0C0E0D0E011C105
:101CE0008091A7019091A80118161906B4F71092D7
:101CF000A901CAE0D1E091E1292E312C8091A901FE
:101D0000843058F7E82EF12CCE9D8001CF9D100D28
:101D1000112407531A4FF801628173816F5F7F4F5F
:101D20007383628320E149EA51E0808191810E94BE
:101D300026056091AA017091AB014091010150917B
:101D40000201F8012081318182819381FB0170962B
:101D50002E173F0784F4205F3F4F621773075CF430
:101D60009A01205F3F4F821793072CF44096481743
:101D700059070CF4C7C1CE9D8001CF9D100D1124D1
:101D800007531A4FF8018581882309F48AC00E94FD
:101D9000BE11A30192010E94E211DC01CB01019668
:101DA000A11DB11DF80191838083E090A901F12C60
:101DB0000E94BE11CE9D8001CF9D100D11240753AE
:101DC0001A4FA50194010E94E211F8017383628306
:101DD0008091A90190E0C89FF001C99FF00D1124E6
:101DE000E753FA4F208131812130310511F43182DE
:101DF0002082C89FF001C99FF00D1124E753FA4FCC
:101E0000208131812230310521F421E330E031831A
:101E10002083C89FF001C99FF00D1124E753FA4FAA
:101E2000208131812330310521F421E430E03183F8
:101E30002083C89FF001C99FF00D1124E753FA4F8A
:101E4000208131812430310521F421E630E03183D5
:101E50002083C89FF001C99FF00D1124E753FA4F6A
:101E600022813381232B21F420EF3FEF3383228320
:101E7000C89FF001C99FF00D1124E753FA4F22814A
:101E800033812130310521F420EF3FEF338322836A
:101E9000C89F9001C99F300D1124F901E753FA4FF3
:101EA00015822091A901C29FF0011124E753FA4F36
:101EB00082819381813491050CF0D5832F5F20932B
:101EC000A9011CCFF801EC0FFD1FED5EFE4F408114
:101ED000518185E0440F551F8A95E1F747595E4FC0
:101EE00020E1BE01C7010E9426050E5F1F4F30E1B1
:101EF000E30EF11C0031110529F76096C034D105BD
:101F000029F0E12CF12C00E010E0DCCF80E40E940D
:101F10001C06882361F18091AA019091AB01823166
:101F2000910519F482E390E005C08233910539F4FC
:101F300082E490E09093AB018093AA0118C08234B0
:101F40009105A9F482E690E09093AB018093AA01F9
:101F500080910001882359F08091A7019091A801F8
:101F60000A969093A8018093A7011092000180E245
:101F70000E941C06882361F18091AA019091AB0117
:101F80008236910519F482E490E005C0823491050F
:101F900039F482E390E09093AB018093AA0118C0DA
:101FA000C297B1F482E190E09093AB018093AA01D3
:101FB0008091000181110CC08091A7019091A8012E
:101FC0000A969093A8018093A70181E08093000175
:101FD0000E94F80B87FF06C08091010190910201D9
:101FE000019709C00E94F80B84FF09C0809101018C
:101FF00090910201019690930201809301018091DA
:10200000010190910201803F9F4F34F486E390E0FC
:10201000909302018093010180910101909102014E
:102020008334910524F01092020110920101609115
:10203000A7017091A8011616170654F4E091A901A2
:102040002AE0E29FF0011124E753FA4F81E08483F4
:102050006B01770FEE08FF08F7FE14C0E091B205A0
:10206000F091B3050190F081E02D6DE282EB95E0F7
:10207000099566277727CB016C197D098E099F0981
:102080004AE003C04AE0C701B6010E943A0686EB67
:1020900095E00E94000C2AC00E9427068091BB0593
:1020A0008093BC050E94F80B8093BB051092C2057B
:1020B0001092C1051092C4051092C30540E250E091
:1020C00060E871E082EB95E00E94080A88E00E94D7
:1020D0001C068823E1F21092AD011092AC0110921F
:1020E000AB011092AA01C0930001D1CF86EB95E01D
:1020F0000E94000C80E090E0892B09F442CD0E9400
:1021000000003FCD82E090E09093AD018093AC0160
:10211000F801D58330CE109200061092FF0588EEAC
:1021200093E0A0E0B0E08093010690930206A093B4
:102130000306B093040687E591E09093FE05809333
:10214000FD058FEF9FEF90930A0680930906E9EC57
:10215000F5E080E090E031E040E150E01182108253
:1021600013821282DC01A753BA4F14961C92149763
:1021700021E015963C9357834683518740870A9602
:102180003A968832910551F71092B5051092B40530
:102190001092BB051092BC0580E18093BD051092A2
:1021A000BA051092B9051092BF0589E691E09093A7
:1021B000B3058093B20587E791E09093B7058093CC
:1021C000B6051092C2051092C1051092C405109276
:1021D000C3052093C5051092C6052093C70510922C
:1021E000C8050895CF92DF92EF92FF920F931F934D
:1021F000CF93DF931F92CDB7DEB7182F062FE42EB3
:10220000862F880F8E5F99830E94D20683E00E94FA
:10221000D206F12EC12E9981D92E8C2D8F198017BF
:1022200098F4F601E7FE02C0849101C080810E940B
:10223000D206182F80E00E94D2068123FFEFCF1A2A
:10224000DF0A8111EACF01C081E00F90DF91CF91C9
:102250001F910F91FF90EF90DF90CF9008950F9313
:102260001F93CF93DF93EC0181E090E00E94CC11AB
:1022700080FF2EC08AE090E00E94CC119FEF980F63
:102280009E3F30F522E330E0388B2F8728E330E0A3
:102290003A8B298B0BE010E0E881F9810190F08105
:1022A000E02D682FCE010995C8010E94CC110F5F67
:1022B0001F4F0131110581F7CE0104960E94000CD9
:1022C00088EE93E0DF91CF911F910F910C94F30B67
:1022D000DF91CF911F910F91089504970C942F11C6
:1022E0008F929F92AF92BF92CF92DF92EF92FF9226
:1022F000CF93DF93EC01688179818A819B8161159D
:1023000071058105910521F464E279ED8BE597E093
:102310002DE133EF41E050E00E94E21149015A0102
:102320009B01AC01A7EAB1E40E9401126B017C01A0
:10233000ACEEB4EFA50194010E940F12DC01CB01B9
:102340008C0D9D1DAE1DBF1DB7FF03C00197A109D8
:10235000B04888839983AA83BB83BC01CD019F7752
:10236000DF91CF91FF90EF90DF90CF90BF90AF9033
:102370009F908F9008950E94701108958FE091E0D2
:102380000E947011089560930F0170931001809363
:102390001101909312010895F999FECF92BD81BD6C
:1023A000F89A992780B50895262FF999FECF1FBA7C
:1023B00092BD81BD20BD0FB6F894FA9AF99A0FBE6E
:1023C00001960895052E97FB1EF400940E94F911C2
:1023D00057FD07D00E94141207FC03D04EF40C9452
:1023E000F91150954095309521953F4F4F4F5F4FD4
:1023F000089590958095709561957F4F8F4F9F4F71
:1024000008950E943612A59F900DB49F900DA49F31
:10241000800D911D11240895B7FF0C9401120E94A4
:102420000112821B930B0895A1E21A2EAA1BBB1B5B
:10243000FD010DC0AA1FBB1FEE1FFF1FA217B30790
:10244000E407F50720F0A21BB30BE40BF50B661FA6
:10245000771F881F991F1A9469F76095709580956A
:1024600090959B01AC01BD01CF010895A29FB001E1
:10247000B39FC001A39F700D811D1124911DB29FB8
:10248000700D811D1124911D0895EE0FFF1F059001
:10249000F491E02D099481E090E0F8940C945012AE
:0424A000F894FFCFDE
:1024A400011E0000E1000000000000FFFFFFFF012B
:1024B4000000000000010000000100010000000114
:1024C4000000000000010000000100010000000104
:1024D40000000000000100000001000100000001F4
:1024E40000000000000100000001000100000001E4
:1024F400000000000000002004A104410436048709
:10250400044504630400000000330A080A430B4234
:102514000B2F11FCFF00006D1100C1808100000031
:10252400596F75204D6164652020697420546F20B3
:10253400546865200A204F74686572205369646585
:02254400000095
:00000001FF
